:100000000C9457000C947F000C947F000C947F009C
:100010000C947F000C947F000C947F000C947F0064
:100020000C947F000C947F000C947F000C947F0054
:100030000C947F000C947F000C947F000C947F0044
:100040000C947F000C945A040C947F000C947F0055
:100050000C947F000C94B72D0C947F000C947F00BF
:100060000C947F000C9411220C94E6210C947F00D8
:100070000C947F000C947F000C947F000C947F0004
:100080000C947F000C947F000C947F000C947F00F4
:100090000C947F000C947F000C947F000C947F00E4
:1000A0000C947F000C947F000C947F00031A1124A1
:1000B0001FBECFEFDAE0DEBFCDBF11E0A0E0B1E0C0
:1000C000E6E6F2E602C005900D92AA38B107D9F72C
:1000D00022E0AAE8B1E001C01D92A43AB207E1F71C
:1000E00010E0C7E5D0E004C02197FE010E94EA308D
:1000F000C635D107C9F70E94FA0F0C9431310C9420
:100100000000FC01EE5EFD4F2FEF3FEF31832083B7
:1001100035961082319611821082329611821082A9
:1001200070971082349648E140833E97108275960E
:10013000108274971082E1E8F0E088E080833093C9
:1001400089002093880082E080936F008081856021
:100150008083E1E9F0E08081856080830895FC017F
:10016000ED5FFD4F108231961082329710823796E4
:1001700010823496108220918B01211146C037964F
:10018000208130918F01321780F0109295001092EB
:10019000940010928F0121E0319620837297208382
:1001A00033962083319710822DC0FC01EB5EFD4F0A
:1001B00030813130A9F46091940070919500E09104
:1001C0008800F09189002E9FA0012F9F500D1124CF
:1001D0009A01369527952617370720F020E003C0AF
:1001E00020E001C021E0222369F0FC01EA5FFD4F1D
:1001F000108221E031972083349620833597208325
:100200007196108221E020938B0120918A012111A7
:1002100043C020918E012831C0F028B1206428B954
:1002200010928E0121E0FC01EE5FFD4F208332979A
:10023000308174963083329620833E9720833197A5
:1002400010822BB122602BB920C0FC01EA5EFD4F69
:100250002081213031F420918E012C3020F420E0D7
:1002600003C020E001C021E0222379F028B12F7BD8
:1002700028B9FC01EA5EFD4F10823E97108221E012
:10028000319720832BB12D7F2BB9FC01E35FFD4F0C
:1002900021E0208320938A010895663089F028F4B4
:1002A000633091F0643071F011C06C3089F06831C6
:1002B00019F0683059F402C081E0089583E0089590
:1002C00084E0089586E0089588E0089580E0089528
:1002D00082E00895FC01ED5FFD4F1082319610829F
:1002E0003596108234961082FB012689213009F060
:1002F0004AC0208D213009F046C0FC01E25FFD4F6D
:100300004081642F70E03696208130E0F90131970A
:100310006E177F079CF0FC01E25FFD4F108221E029
:100320003B97208333962083319710823597208125
:10033000749620832BB122602BB920C03595279568
:1003400062177307B4F0FC01EA5FFD4F2081213092
:1003500081F432972083329610823197208334962D
:1003600020832BB12D7F2BB9359620812F5F2083E1
:1003700005C0FC01E25FFD4F4F5F4083FC01E35F7E
:10038000FD4F21E020830895FC01FE5F20817496DB
:1003900020830895FB01EE0FFF1FE80FF91F208156
:1003A00031813093890020938800FC01EE5EFD4F7F
:1003B000718360830895FC01EE5EFD4F20813181E1
:1003C0002617370709F44CC03D972081213009F0EA
:1003D00047C0FB01EE0FFF1FE80FF91F208131819D
:1003E000E8E8F0E03183208340918400509185005B
:1003F000208131812417350770F5FC01EC5EFD4F3B
:10040000308120918F01231770F021E071972083B4
:1004100033962083319710821092950010929400A9
:1004200010928F0105C020918F012F5F20938F01C3
:1004300020918E01283130F028B1206428B9109223
:100440008E0105C020918E012F5F20938E011092A6
:10045000850010928400FC01EE5EFD4F7183608385
:100460000895709389006093880008951092850024
:100470001092840088E180938E0180938F01109206
:100480008A0110928B01089586B1881F8827881FE2
:10049000813009F080E00895EF92FF920F931F934F
:1004A000CF93DF93EC01FC01ED5FFD4F108231969D
:1004B000108232971082379610820E944402813057
:1004C00041F4FE01E95EFD4F8081882321F010E0B8
:1004D00003C010E001C011E0112309F455C0FE0172
:1004E000E65FFD4F908180918C018917C0F01092DA
:1004F0008C0188B1806488B98BB182608BB981E04E
:100500003897808335961082319680833897608142
:100510007496608331968081813081F40AC0809125
:100520008C018F5F80938C01C95EDD4F81E08883F1
:10053000CAC081E0FE01EC5FFD4F8083FE01EB5EEF
:10054000FD4F108210928D0104E910E0F801E08067
:10055000F180FE01E85EFD4FF182E082CE010E9453
:100560004D01682F70E0C7010E943D30FE01E65E3C
:10057000FD4F71836083F8011182108281E0FE01DA
:10058000E95EFD4F808312C0CE010E9444028111BA
:1005900007C0FE01E95EFD4F8081813009F411E062
:1005A000112321F0FE01E95EFD4F1082209194009D
:1005B00030919500FE01E85EFD4F80819181969516
:1005C00087952817390730F070978081813021F0A6
:1005D00080E003C080E001C081E0882369F088B139
:1005E0008F7B88B981E0FE01E95FFD4F8083319602
:1005F00010828BB18D7F8BB9FE01EC5EFD4F608167
:10060000CE010E944D0190918D01981708F05BC0BA
:100610004091940050919500FE01E65EFD4F80816F
:10062000918160918D01689F9001699F300D112427
:100630004217530730F035972081222321F020E024
:1006400003C020E001C021E0222369F0FE01ED5F3C
:10065000FD4F81E080833296108231968083CB5E9D
:10066000DD4F888330C06091940070919500FC014B
:10067000F695E79530918D01389FA001399F500D77
:100680001124CF01840F951F6817790738F0FE01F8
:10069000EB5EFD4F8081813009F421E0222399F047
:1006A000FE01EC5FFD4F81E08083319680833196BF
:1006B00010823F96108290918D019F5F90938D01E3
:1006C000C75FDD4F8883DF91CF911F910F91FF901E
:1006D000EF900895DF92EF92FF920F931F93CF93C5
:1006E000DF93EC017A018901FC01EF5FFD4F80810E
:1006F000811104C0CE010E94AF0009C0823021F4F4
:10070000CE010E944C0203C0CE010E946A01FE018C
:10071000EF5FFD4F808181113CC0C8010E949E04A3
:10072000813031F4F8018081813021F0D12C04C076
:10073000D12C02C0DD24D394DD2031F0C7010E940A
:10074000022DF801108210C0C8010E949E04811180
:1007500006C0F8018081811102C0DD24D394DD2020
:1007600019F081E0F8018083F7018081813089F4FC
:10077000FE01ED5FFD4F8081813059F4F701618109
:100780007281CE010E943102CE010E943602F70131
:100790001082DF91CF911F910F91FF90EF90DF902A
:1007A0000895CF93DF93EC010E944402811108C0A9
:1007B000FE01EF5FFD4F8081823021F480E003C0B5
:1007C00080E001C081E0882351F0FE01E65FFD4F2B
:1007D000808180938C01CF5FDD4F82E08883DF9141
:1007E000CF9108958F929F92AF92BF92EF92FF9216
:1007F0000F931F93CF93DF937C0100E010E00F3F36
:10080000110511F00CF04BC0B801012E000C880B43
:10081000990B0E94EC2E20E030E04FE753E40E9459
:10082000492E4B015C01F701EF5EFD4F608131976E
:10083000C081D0E070E06C1B7D0B072E000C880B94
:10084000990B0E94EC2EA50194010E94D02F4B0120
:100850005C01BE01DD0F880B990B0E94EC2EA501F7
:1008600094010E94DD2D0E94272F9B01AC0160E0C6
:1008700070E080E290E40E94492E20E034E244E7F8
:1008800056E40E94D02FE801CC0FDD1FCE0DDF1DF6
:100890000E94BB2E798368830F5F1F4FB0CFDF911B
:1008A000CF911F910F91FF90EF90BF90AF909F90CD
:1008B0008F9008951F920F920FB60F9211248F936D
:1008C00080918F018F5F80938F0180918E018F5F68
:1008D00080938E0110928A0110928B018F910F905C
:1008E0000FBE0F901F901895EF92FF920F931F93DA
:1008F000CF93DF93DC01EB018881E1E0F0E0022E91
:1009000002C0EE0FFF1F0A94E2F7E095E823E883A8
:1009100013962C93139712965C934E9311971A96F5
:10092000ED92FD920D931C931D9781E08C93DF91C6
:10093000CF911F910F91FF90EF9008958F929F920A
:10094000AF92BF92FF920F931F93CF93DF93EC016F
:10095000E981FA8120813B8101E010E0C801032E8A
:1009600002C0880F991F0A94E2F7022F10E00823B3
:10097000192302C0159507953A95E2F7F02E8C8160
:10098000081741F085E991E00E94F92C6E837F837E
:100990008887998785E991E00E94F92C8E809F8055
:1009A000A884B984DC01CB0188199909AA09BB097B
:1009B0008A849B84AC84BD8488169906AA06BB06EB
:1009C00018F48D81F8120D830C838D81DF91CF9106
:1009D0001F910F91FF90BF90AF909F908F900895BF
:1009E000DC011196ED91FC911297408113965C9178
:1009F00081E090E09C01052E02C0220F331F0A9473
:100A0000E2F7842F90E08223932302C09595879587
:100A10005A95E2F7813009F080E00895FC01658382
:100A20000895813031F4613051F0413051F488E063
:100A30000895613041F0413041F483E0089588E148
:100A400008958CE0089586E0089584E0089520E0FC
:100A500030E023303105DCF48BB181608BB94FEF8E
:100A600081EE94E0415080409040E1F700C00000EA
:100A70008BB18E7F8BB94FEF81EE94E04150804077
:100A80009040E1F700C000002F5F3F4FE2CF089594
:100A900020E030E023303105DCF481B3816081BB9C
:100AA0004FEF81EE94E0415080409040E1F700C06C
:100AB000000081B38E7F81BB4FEF81EE94E0415007
:100AC00080409040E1F700C000002F5F3F4FE2CF31
:100AD000089520E030E0233031050CF58BB18160C2
:100AE0008BB981B3816081BB4FEF81EE94E04150BF
:100AF00080409040E1F700C000008BB18E7F8BB941
:100B000081B38E7F81BB4FEF81EE94E041508040F6
:100B10009040E1F700C000002F5F3F4FDCCF089509
:100B200020E030E0203131058CF5482F50E04217AD
:100B300053071CF09BB191609BB9E62FF0E0E217E0
:100B4000F3071CF091B3916091BB7FEF93ECA9E0A8
:100B500071509040A040E1F700C000009BB19E7F23
:100B60009BB991B39E7F91BB7FEF93ECA9E071504D
:100B70009040A040E1F700C00000241735071CF0AA
:100B80002E173F071CF42F5F3F4FCCCF089520E076
:100B900030E0482F50E024173507DCF491B3916022
:100BA00091BB4FEF53EC99E0415050409040E1F73A
:100BB00000C0000091B39E7F91BB4FEF53EC99E0D2
:100BC000415050409040E1F700C000002F5F3F4F80
:100BD000E0CF0895019759F46F3F7F4F41F485E9C5
:100BE00091E00E94EC2C84E991E00E94332008956A
:100BF000AF92CF92EF920F93242F602F4E2DEC2CBB
:100C00000A2D0E944F1F0F91EF90CF90AF90089543
:100C10007F928F929F92AF92BF92CF92DF92EF928C
:100C2000FF920F931F93CF93DF93CDB7DEB75C0195
:100C3000F62E942E722EDE2CF801EB5FFD4F808194
:100C40008130D1F46C2D882D0E94501C182F6F2DEF
:100C50006719E82E08892D2D492DC5010E94721EA5
:100C60006C2D812F0E94501C0C2D212F482F6D2D93
:100C7000C5010E94791D12C0621BE82C08892D2D28
:100C8000C5010E94721E6C2D882D0E94501C0C2DD7
:100C9000282D482F6D2DC5010E94791DDF91CF9120
:100CA0001F910F91FF90EF90DF90CF90BF90AF908A
:100CB0009F908F907F900895CF92DF92EF92FF9256
:100CC0000F931F93CF93DF93CE2DD0E0CC0FDD1F7A
:100CD000CC0FDD1FCC0FDD1FC80FD91F88818F7788
:100CE00090E010E08017910709F4CFC08981882334
:100CF00014F4C110CAC0243009F4C7C0E22EF42E87
:100D0000FB016781606984E991E00E949F21E11005
:100D100023C084E08E1508F4B8C0FE01EE0DF11D6D
:100D200060816F77862F90E00817190709F4ADC02E
:100D30008F0D911DF7FC9A9501978F37910550F40F
:100D40006F0D84E991E00E948B216D8184E991E02F
:100D50000E948B21E394DDCF81E0E81224C0E12CD6
:100D600083E08E1508F491C0FE01EE0DF11D608147
:100D70006F77862F90E00817190709F486C08F0D4A
:100D8000911DF7FC9A9501978F37910550F46F0DDF
:100D900084E991E00E948B216FE784E991E00E9451
:100DA0008B21E394DDCF82E0E8122CC0E12C83E0BC
:100DB0008E1508F46AC0CE2CD12CFE01EC0DFD1D61
:100DC00060816F77862F90E00817190709F45DC0DE
:100DD0008F0D911DF7FC9A9501978F37910580F43F
:100DE0006F0D84E991E00E948B2184E0C80ED11C34
:100DF000FE01EC0DFD1D608184E991E00E948B21D4
:100E0000E394D5CF83E0E8121BC068816F77862F0B
:100E100090E008171907C9F18F0D911DF7FC9A95FD
:100E200001978F37910588F56F0D84E991E00E9455
:100E30008B2169816F7784E991E00E948B2125C025
:100E400085E0E81222C0E12C87E08E15F0F0FE016B
:100E5000EE0DF11D60816F77862F90E0081719075E
:100E6000A1F08F0D911DF7FC9A9501978F37910591
:100E700050F46F0D84E991E00E948B216FE784E9C3
:100E800091E00E948B21E394DFCFDF91CF911F91FE
:100E90000F91FF90EF90DF90CF9008952F923F92A7
:100EA0004F925F926F927F928F92AF92BF92CF924A
:100EB000DF92EF92FF920F931F93CF93DF93CDB703
:100EC000DEB73C011B01142F5901F02E2601F90158
:100ED000EB5FFD4F8081813001F56E2D882D0E94E2
:100EE000501CE82FF0E0EE0FFF1FEE0FFF1FEE0F7C
:100EF000FF1FE60DF71D818188236CF4C12CE82CBF
:100F00000C892F2D412FB101C3010E945C0681E0A5
:100F1000ED89FE898083F2011082F501EA5FFD4FC1
:100F20008081813079F4C12CE82C0C892F2D412F40
:100F3000B101C3010E945C0681E0ED89FE898083D6
:100F4000F2011082DF91CF911F910F91FF90EF90EE
:100F5000DF90CF90BF90AF908F907F906F905F9019
:100F60004F903F902F900895AF92CF92DF92EF92E3
:100F7000FF920F931F93CF93DF9331E0A3120EC024
:100F8000EC2DF0E0EE0FFF1FEE0FFF1FEE0FFF1F27
:100F9000E80FF91F318133230CF4D4C0C22ED42EB4
:100FA000FB01F12CEE0CFF1CEE0CFF1CEE0CFF1CE9
:100FB000EC01CE0DDF1D88818F7790E010E0801767
:100FC000910749F084E0281731F06781606884E96F
:100FD00091E00E949F21C11025C0F12C34E03F1503
:100FE00008F4B0C0FE01EF0DF11D60816F77262F70
:100FF00030E00217130709F4A5C02D0D311DD7FCF1
:101000003A95215031092F37310550F46D0D84E99F
:1010100091E00E948B2160E084E991E00E948B21A5
:10102000F394DCCF81E0C81224C0F12C33E03F15EB
:1010300008F488C0FE01EF0DF11D60816F77862FE7
:1010400090E00817190709F47DC08D0D911DD7FC9C
:101050009A9501978F37910550F46D0D84E991E0D1
:101060000E948B2160E084E991E00E948B21F3943F
:10107000DDCF82E0C81224C0F12C33E03F1508F424
:1010800061C0FE01EF0DF11D60816F77862F90E04A
:101090000817190709F456C08D0D911DD7FC9A95B4
:1010A00001978F37910550F46D0D84E991E00E940E
:1010B0008B2160E084E991E00E948B21F394DDCFE5
:1010C00083E0C8121AC068816F77862F90E00817F6
:1010D0001907C1F18D0D911DD7FC9A9501978F3796
:1010E000910580F56D0D84E991E00E948B2160E00F
:1010F00084E991E00E948B2125C035E0C31222C013
:10110000F12C87E08F15F0F0FE01EF0DF11D6081ED
:101110006F77862F90E008171907A1F08D0D911DAC
:10112000D7FC9A9501978F37910550F46D0D84E99E
:1011300091E00E948B2160E084E991E00E948B2184
:10114000F394DFCFDF91CF911F910F91FF90EF903C
:10115000DF90CF90AF9008952F923F924F925F9281
:101160006F927F928F929F92AF92BF92CF92DF92B7
:10117000EF92FF920F931F93CF93DF93CDB7DEB71C
:101180003C011B01122FF02E8E2DDC2C250182300C
:1011900081F5FA01EA5FFD4F8081813099F0602F7F
:1011A0008E890E94501CE82FF0E0EE0FFF1FEE0F1B
:1011B000FF1FEE0FFF1FE60DF71D8181882324F02E
:1011C00080E003C081E001C081E0882371F0F40178
:1011D0004081A12CC12CEE880F89212FB101C301C0
:1011E0000E94B407E88DF98D108282E0F2018083BD
:1011F000B3C0813009F066C0FA01EB5FFD4F80811A
:10120000813051F5602F8E890E94501CE82FF0E04C
:10121000EE0FFF1FEE0FFF1FEE0FFF1FE60DF71D76
:101220008181882374F4F4014081A12CC12CEE88C3
:101230000F89212FB101C3010E94B407E88DF98DF8
:1012400010826F2D8E890E94501C2F89482F612F8C
:10125000C3010E947A1C32C0FA01EA5FFD4F80810F
:10126000813099F0602F8E890E94501CE82FF0E0A9
:10127000EE0FFF1FEE0FFF1FEE0FFF1FE60DF71D16
:101280008181882324F080E003C081E001C081E0F7
:101290008823A1F0F4014081A12CC12CEE880F8994
:1012A000212FB101C3010E94B407E88DF98D10828E
:1012B0002F894E89612FC3010E947A1C81E0F201BF
:1012C00080834AC0833009F047C0FA01EA5FFD4FCE
:1012D0008081813099F0602F8E890E94501CE82F08
:1012E000F0E0EE0FFF1FEE0FFF1FEE0FFF1FE60DEA
:1012F000F71D8181882324F080E003C081E001C0D4
:1013000081E0882301F1F4014081A12CC12CEE88F9
:101310000F89212FB101C3010E94B407E88DF98D17
:101320001082F1E0DF120FC0F1014081FD894F1BF7
:10133000EE880F89212FB101C3010E945C0681E074
:10134000E88DF98D8083F1018081FD898F1BF40187
:10135000808383E0F2018083DF91CF911F910F9111
:10136000FF90EF90DF90CF90BF90AF909F908F90C5
:101370007F906F905F904F903F902F900895CF9304
:10138000DF93D42FC22F682B84E991E00E949F2124
:101390006D2F84E991E00E948B216C2F84E991E00C
:1013A0000E948B21DF91CF910895CF93DF93D42FAB
:1013B000C22F682B84E991E00E949F216D2F84E960
:1013C00091E00E948B216C2F84E991E00E948B2197
:1013D000DF91CF910895CF92DF92EF92FF920F931A
:1013E0001F93CF93DF936C017B01D22FC02F41114C
:1013F00016C0E02FF0E0EE0FFF1FEE0FFF1FEE0F05
:10140000FF1FE80FF91F4681421709F47DC02781AD
:101410000D2F60EBF70187810E94D50975C041301F
:1014200031F510E0123008F06FC0EC2FF0E0EE0F55
:10143000FF1FEE0FFF1FEE0FFF1FEC0DFD1D812F95
:1014400090E0880F991FDC011496AE0FBF1F4C91DE
:10145000D41709F459C00596E80FF91F20810D2F04
:1014600060EBF70187810E94D5091F5FDBCF433016
:1014700029F510E0133008F047C0EC2FF0E0EE0F34
:10148000FF1FEE0FFF1FEE0FFF1FEC0DFD1D812F45
:1014900090E0880F991FDC011296AE0FBF1F4C9190
:1014A000D41791F10396E80FF91F20810D2F60EBFF
:1014B000F70187810E94D5091F5FDCCF443021F5F9
:1014C00010E0133008F5EC2FF0E0EE0FFF1FEE0FE9
:1014D000FF1FEE0FFF1FEC0DFD1D812F90E0880F09
:1014E000991FDC011296AE0FBF1F4C91D41761F00B
:1014F0000396E80FF91F20810D2F60EBF70187811C
:101500000E94D5091F5FDDCFDF91CF911F910F9111
:10151000FF90EF90DF90CF9008959C0190E0961798
:1015200078F4E92FF0E0EE0FFF1FEE0FFF1FEE0F34
:10153000FF1FE20FF31F8081811103C09F5FEFCF78
:1015400080E008952F923F924F925F926F927F9228
:101550008F929F92AF92BF92CF92DF92EF92FF92C3
:101560000F931F93CF93DF9300D000D000D0CDB75F
:10157000DEB72C0169834A8339011C830B83170171
:1015800075019E828D821B8D81B3816081BB88B184
:101590008F7B88B985E991E00E94F92C4B015C01B1
:1015A000C1010E949E04813009F08FC085E991E05D
:1015B0000E94F92CDC01CB0188199909AA09BB0901
:1015C000853C9940A105B10508F45FC0C7010E94A0
:1015D0009E048130E1F481B38E7F81BB4A816981B1
:1015E000C2010E942A1E0E942705C1010E949E047A
:1015F000813039F0C6010E949E04813021F080E0E4
:1016000003C081E001C081E08111EFCF5AC18D811B
:101610009E810E949E048130E1F46A81C2010E9491
:101620005C1C80E8EB81FC8180830E944805C1013D
:101630000E949E04813039F0C6010E949E048130D0
:1016400021F080E003C081E001C081E08111EFCF93
:1016500038C16A81C2010E945C1C80E4EB81FC817C
:1016600080830E944805C1010E949E04813039F0A8
:10167000C6010E949E04813021F080E003C081E019
:1016800001C081E08111EFCF1CC1C6010E949E0400
:10169000813009F085CF8BB181608BB9C2010E9486
:1016A00033220E946905C1010E949E04813039F0F5
:1016B000C6010E949E04813021F080E003C081E0D9
:1016C00001C081E08111EFCFFCC06A81C2010E949C
:1016D0005C1C84E991E00E94D721F12CC3010E9497
:1016E000A21AF30181818130A1F48BB181608BB9A1
:1016F000113031F42381408160E987810E94BF0964
:10170000F30143816081EF2C0A812981C2010E948B
:10171000721EF3018281813081F4113031F4238112
:10172000408160E887810E94BF09F3018789813089
:1017300021F48BB18E7F8BB9F394C1010E949E047A
:10174000813031F4F3018789813021F080E003C0DA
:1017500080E001C081E0882381F08BB181608BB98A
:10176000F394C1010E949E048130D9F384E991E091
:101770000E94D7218BB18E7F8BB9C1010E949E043C
:10178000813031F4F3018789882321F080E003C0A0
:1017900080E001C081E08823E9F1EE24E394EF0CBE
:1017A0004E2D6981C2010E94CE1CC1010E949E047F
:1017B0008130D9F38BB18E7F8BB9F3018789811189
:1017C00026C0C3010E94A21AC1010E949E0481305A
:1017D00089F48BB181608BB9C1010E949E04813074
:1017E000D9F3E3944E2D6981C2010E94CE1C8BB1C6
:1017F0008E7F8BB9F30182818130F9F61130E9F6E1
:101800002381408160E887810E94BF09D6CFFF24F1
:10181000F394FE0CF30180898130A9F4878981114A
:1018200012C047856685EF2C0A812981C2010E947A
:101830004F1F113041F4F301278546850A8160EB83
:1018400087810E94D509C6010E949E04813061F4FF
:10185000C1010E949E04811109C0FF2049F0F301DB
:101860008789813039F407C080E005C080E003C07B
:1018700080E001C080E0882361F08BB181608BB98A
:10188000C6010E949E048130D9F38BB18E7F8BB943
:1018900003C0FF200CF022CFEB81FC81F0826F2D82
:1018A000C2010E94D11FEC8DFD8D1082EB81FC8165
:1018B0006081C2010E948D0AEE8DFF8D80830E949F
:1018C000480526960FB6F894DEBF0FBECDBFDF9158
:1018D000CF911F910F91FF90EF90DF90CF90BF902D
:1018E000AF909F908F907F906F905F904F903F90C0
:1018F0002F900895CF92DF92EF92FF9220E030E098
:1019000040E251E460910001709101018091020177
:10191000909103010E94D02F0E94BB2E6B017C018D
:101920009B01ADECBCEC0E94703096958795969526
:101930008795969587959C01220F331F880F991FD5
:10194000880F991F880F991F820F931F9601281BDC
:10195000390BC901E22F99279601281B390B0E94E8
:101960007030AC01569547955695479556954795D5
:101970009A010E94703096958795969587959695D1
:1019800087959C01220F331F880F991F880F991F7D
:10199000880F991F820F931F481B90E09A3020F503
:1019A000941718F431B3316031BB9E1718F43BB172
:1019B00031603BB93FEF83EC29E03150804020405B
:1019C000E1F700C0000031B33E7F31BB3BB13E7F49
:1019D0003BB93FEF83EC29E0315080402040E1F7F4
:1019E00000C000009F5FDACFFF90EF90DF90CF90B4
:1019F00008956F927F928F929F92AF92BF92CF92F3
:101A0000DF92EF92FF920F931F93CF93DF93EC013E
:101A10007B015A016901380184E890E099235CF068
:101A20002881422F50E0481759071CF0122F181B2D
:101A300003C00C97F3CF10E011111EC00E94E924DF
:101A400091E0811190E0F5019083892E912C96947C
:101A5000982C88249794879480E691E00E9409311D
:101A60008F77682F682980E691E00E942331F50185
:101A700080818F5F0E94C7051130F1F40E94D92345
:101A800091E0811190E0F6019083A92EB12CB694DB
:101A9000BA2CAA24B794A79480E491E00E9409315B
:101AA0008F77682F6A2980E491E00E942331F60144
:101AB00080818F5F0E94C705F6018081813029F403
:101AC000F701EF5FFD4F808304C0F701EF5FFD4F2B
:101AD0001082123019F50E94E12391E0811190E00B
:101AE0005701F5EFAF1AFDEFBF0AF5019083C92E3C
:101AF000D12CD694DC2CCC24D794C79488E491E0E4
:101B00000E9409318F77682F6C2988E491E00E9448
:101B10002331F50180818F5F0E94C705133009F0E2
:101B200061C00E94E9238F5F843028F0F701E65FEF
:101B3000FD4F108206C0F701E65FFD4F880F815010
:101B400080836701F6EFCF1AFDEFDF0AF601A08070
:101B5000F0E1AF9E5001112488E691E00E94093126
:101B60006A2D60788F77682B88E691E00E94233198
:101B7000F601A080F0E2AF9E5001112480E791E0D1
:101B80000E9409316A2D60788F77682B80E791E099
:101B90000E942331F601A080F0E4AF9E5001112491
:101BA00088E791E00E9409316A2D60788F77682B71
:101BB00088E791E00E942331F6016081F0E86F9F91
:101BC0005001112480E891E00E9409318F77682F3D
:101BD0006A2980E891E00E942331F60180818F5FBD
:101BE0000E94C705143009F044C0F301108280E45C
:101BF00090E00E940931682F6F7780E490E00E94A6
:101C00002331F301C080F0E2CF9E6001112488E40B
:101C100090E00E9409316C2D60788F77682B88E402
:101C200090E00E942331F301C080F0E4CF9E600178
:101C3000112480E590E00E9409316C2D60788F7747
:101C4000682B80E590E00E942331F301C080F0E82A
:101C5000CF9E6001112488E590E00E9409318F77C2
:101C6000682F6C2988E590E00E94233182E00E9471
:101C7000C705153009F045C081E0F301808380E499
:101C800090E00E940931682F6F7780E490E00E9415
:101C90002331F301C080F0E2CF9E6001112488E47B
:101CA00090E00E9409316C2D60788F77682B88E472
:101CB00090E00E942331F301C080F0E4CF9E6001E8
:101CC000112480E590E00E9409316C2D60788F77B7
:101CD000682B80E590E00E942331F301C080F0E89A
:101CE000CF9E6001112488E590E00E9409318F7732
:101CF000682F6C2988E590E00E94233182E00E94E1
:101D0000C705163009F045C082E0F301808380E406
:101D100090E00E940931682F6F7780E490E00E9484
:101D20002331F301C080F0E2CF9E6001112488E4EA
:101D300090E00E9409316C2D60788F77682B88E4E1
:101D400090E00E942331F301C080F0E4CF9E600157
:101D5000112480E590E00E9409316C2D60788F7726
:101D6000682B80E590E00E942331F301C080F0E809
:101D7000CF9E6001112488E590E00E9409318F77A1
:101D8000682F6C2988E590E00E94233182E00E9450
:101D9000C705173059F580E490E00E940931682F9B
:101DA0006F7780E490E00E94233188E490E00E9405
:101DB0000931682F6F7788E490E00E94233180E535
:101DC00090E00E940931682F606880E590E00E94F1
:101DD000233188E590E00E940931682F606888E52A
:101DE00090E00E94233182E00E94C705183009F07C
:101DF00045C084E0F301808380E490E00E940931D3
:101E0000682F6F7780E490E00E942331F301C08057
:101E1000F0E2CF9E6001112488E490E00E94093135
:101E20006C2D60788F77682B88E490E00E942331D6
:101E3000F301C080F0E4CF9E6001112480E590E0C2
:101E40000E9409316C2D60788F77682B80E590E0D7
:101E50000E942331F301C080F0E8CF9E600111247D
:101E600088E590E00E9409318F77682F6C2988E51A
:101E700090E00E94233182E00E94C705193009F0EA
:101E800045C085E0F301808380E490E00E94093141
:101E9000682F6F7780E490E00E942331F301C080C7
:101EA000F0E2CF9E6001112488E490E00E940931A5
:101EB0006C2D60788F77682B88E490E00E94233146
:101EC000F301C080F0E4CF9E6001112480E590E032
:101ED0000E9409316C2D60788F77682B80E590E047
:101EE0000E942331F301C080F0E8CF9E60011124ED
:101EF00088E590E00E9409318F77682F6C2988E58A
:101F000090E00E94233182E00E94C7051B3009F057
:101F100050C0F701E05FFD4F8EE18083319680EF86
:101F20008083C7010E94F2031E821F82E12CF12CE4
:101F3000E11484E0F80644F460E0C7010E94233114
:101F4000EFEFEE1AFE0AF4CF6CE380E090E00E941F
:101F5000233160E888E990E00E94233160E880EA5C
:101F600090E00E94233160E888EA90E00E942331EB
:101F700060E880EB90E00E94233160E880EC90E024
:101F80000E94233160E888EC90E00E94233160E8F1
:101F900080ED90E00E94233160E888ED90E00E949F
:101FA000233160E880E092E00E94233183E00E94C8
:101FB000C705F3018081843019F481E08C8301C06E
:101FC0001C82F3018081823011F0853019F481E0A8
:101FD0008D8301C01D82DF91CF911F910F91FF90E2
:101FE000EF90DF90CF90BF90AF909F908F907F90B9
:101FF0006F900895CF93DF93CDB7DEB7C75ED6401D
:102000000FB6F894DEBF0FBECDBF40E054E060E0F5
:1020100070E0CE0101960E94F9300E94D922CF5F74
:10202000DB4F8883C150D4400E948724CE5FDB4FB2
:102030008883C250D4400E942524682E0E94E9243F
:10204000CD5FDB4F8883C350D440CE018C5F9B4F64
:102050000E940A1A0E946122C65FDB4F8883CA5021
:10206000D4400E949D22C55FDB4F8883CB50D44073
:102070000E94D923C85CDB4F8883C853D440CE016B
:10208000875C9B4F0E94F01B8AB181608AB980B344
:10209000816080BB87B1806487B987B18F7787B94A
:1020A0008AB182608AB9CE01865B9B4F0E94810013
:1020B0000E947723C55AD94F8883CB55D6400E94BA
:1020C0001523C65AD94F8883CA55D6400E94E923A2
:1020D000CC5AD94F8883C455D6400E94E123CB5AAD
:1020E000D94F8883C555D640C85CDB4F8881C8531B
:1020F000D440813029F4C55BD94F8883CB54D64076
:10210000CE01865B9B4F0E94F20340E061E0CE016E
:10211000875C9B4F0E94F71BBC017695679576956F
:102120006795CE01865B9B4F0E94CA01CA59D94F61
:102130001882C656D64012E3E12EF12C00E010E0E2
:1021400024E043E250E064E270E0CE018959994F07
:102150000E94740427E043E250E064E270E0CE01A4
:102160008B58994F0E94740426E04CE250E06DE2D7
:1021700070E0CE018D57994F0E94740426E049E229
:1021800050E06AE270E0CE018F56994F0E947404CD
:1021900024E049E250E06AE270E0CE018156994FB6
:1021A0000E94740427E049E250E06AE270E0CE0148
:1021B0008355994F0E94740425E043E250E064E2A5
:1021C00070E0CE018554994F0E94740426E043E2EA
:1021D00050E064E270E0CE018753994F0E9474048E
:1021E00020E043E250E064E270E0CE018952994F72
:1021F0000E9474047894CE018F56994F0E94F00487
:10220000782ECE018156994F0E94F004182FCE01EE
:102210008355994F0E94F004472D612F0E941105AC
:10222000C65BD94F8883CA54D640CE01865B9B4F8C
:102230000E94C401CE018959994F0E94F004813057
:1022400019F40E947A0C0CC0C55FDB4F6881CB503B
:10225000D440C65FDB4F8881CA50D4400E949005AD
:10226000CE018959994F0E94F004813069F5CE0161
:102270008C5F9B4F0E94A21ACB5FDB4F8881C550B9
:10228000D440813069F78E010F5F1B4F9E01285C9F
:102290003B4FAE014D5F5B4FBE01665B7B4FCE0196
:1022A0008C5F9B4F0E94F90C40E054E060E070E0CE
:1022B000CE0101960E94F9300E948724CE5FDB4F49
:1022C0008883C250D440CCCFCF5FDB4F8881C150D0
:1022D000D440843031F491E0C85FDB4F9883C8501C
:1022E000D440823011F0853031F481E0C75FDB4F9C
:1022F0008883C950D440062D20E04BE760EBC55FD2
:10230000DB4F8881CB50D4400E94D509CA59D94FA0
:102310001882C656D640CB51D94F1882C55ED640DA
:10232000CA51D94F1882C65ED640CE5FDB4F688156
:10233000C250D440CE0101960E948D0AC951D94F96
:102340008883C75ED640CE01865B9B4F0E943602D3
:10235000412C312C212C712C9E012959394F45E9F2
:1023600051E0BE016C5F7B4FCE01865B9B4F0E94AC
:102370006A03CE018C5F9B4F0E94A21ACB5FDB4F9A
:102380008881C550D440813009F087C08BB181600D
:102390008BB981E0281265C0CB51D94F8881C55EC9
:1023A000D640811130C0CE018A59994F9F938F93A7
:1023B0006F924F92C951D94F8881C75ED6408F9393
:1023C000FE01EA51F94F4F01CE018B51994F5C014B
:1023D000C72CE32CCE5FDB4F0881C250D440CF5FC7
:1023E000DB4F2881C150D440AE01465B5B4FBE013C
:1023F0006C5F7B4F845E96400E94AC080F900F90FC
:102400000F900F900F90CB51D94F8881C55ED64069
:10241000813039F581B3816081BBC95FDB4F488171
:10242000C750D440CC5FDB4F6881C450D4406F921A
:10243000842CA72CCE5FDB4FC880C250D440CF5F26
:10244000DB4FE880C150D4408E01065B1B4FCA5160
:10245000D94F2881C65ED640CE0101960E9408065B
:102460000F9091E0791219C0CB51D94F8881C55E88
:10247000D640833091F0C95FDB4F2881C750D440EC
:10248000CC5FDB4F4881C450D44060E9C55FDB4F6F
:102490008881CB50D4400E94BF09CA5FDB4F88813E
:1024A000C650D440813009F09EC0E1E07E1219C0D0
:1024B000CB51D94F8881C55ED640833091F0C95F3A
:1024C000DB4F2881C750D440CC5FDB4F4881C450DC
:1024D000D44060E8C55FDB4F8881CB50D4400E9478
:1024E000BF09F1E02F1275C0CB51D94F8881C55E6D
:1024F000D6408230B1F5C55EDB4F9881CB51D440D8
:10250000913079F5CD57D94F9881C358D640913045
:1025100041F5CE018A59994F9F938F936F92842CE6
:10252000A72C81589F4F6C01CE5FDB4FE880C250D3
:10253000D440CF5FDB4F0881C150D4409E01265B61
:102540003B4FCA51D94F4881C65ED640BE016C5F31
:102550007B4F845E96400E944E070F900F900F9025
:1025600038C08330B1F5C55EDB4F8881CB51D44094
:10257000813079F5711028C0CE018A59994F9F9307
:102580008F936F92842CA72CFE01EB51F94F6F01B2
:10259000CE5FDB4FE880C250D440CF5FDB4F088175
:1025A000C150D4409E01265B3B4FCA51D94F488150
:1025B000C65ED640BE016C5F7B4F855696400E943A
:1025C0004E070F900F900F90CB51D94F1882C55ED8
:1025D000D640C55EDB4F8881CB51D440813019F4A1
:1025E0008BB18E7F8BB9CC5EDB4F8881C451D440D8
:1025F0008130D9F5F1E03F1222C02F1220C081B303
:10260000816081BBCD5EDB4FE880C351D440CE5E9C
:10261000DB4F0881C251D440A62CC42CCE5FDB4FC7
:102620002881C250D440CF5FDB4F4881C150D44095
:10263000BE01665B7B4FCE0101960E94F80581E0EA
:10264000781213C0CD5EDB4F2881C351D440CE5EDB
:10265000DB4F4881C251D440062D60EBC55FDB4F94
:102660008881CB50D4400E94D509C05FDB4F888160
:10267000C051D4408130B1F491E0791213C0C15FF0
:10268000DB4F2881CF50D440C25FDB4F4881CE5012
:10269000D440062D60EEC55FDB4F8881CB50D4401F
:1026A0000E94D509CE018B58994F0E94F0048130C9
:1026B000D9F4CB58D94F8881C557D6408130B1F471
:1026C000C55BD94F8881CB54D640882311F0823026
:1026D00079F4C55EDB4F8881CB51D440813051F411
:1026E000222051F080E009C080E007C080E005C0F2
:1026F00080E003C080E001C081E0882309F4F4C0D9
:102700008BB181608BB98BB18D7F8BB9C55BD94F94
:102710008881CB54D640811180C0CD5FDB4F88814A
:10272000C350D440813039F0CB5AD94F8881C55538
:10273000D6408130F1F4CE5FDB4F4880C250D440A8
:102740004A94CE01865B9B4F0E943602CB5AD94FEA
:102750008881C555D640813029F46AEF84E991E03B
:102760000E948B2181E0CA5AD94F8883C655D64032
:10277000A9C0CF5AD94F8881C155D6408130D9F4EC
:10278000CE5FDB4F4880C250D4404A94C45BD94FDF
:102790008881CC54D640811195C09E012959394F6A
:1027A00045E951E0BE016C5F7B4FCE01865B9B4FDC
:1027B0000E946A03EBCFC05BD94F8881C055D640D9
:1027C000813009F07FC0CC24C394E42C062DCF5F68
:1027D000DB4F2881C150D440CA51D94F4881C65ED1
:1027E000D640BE016C5F7B4FCE0101960E945C0615
:1027F000042D262DCF5FDB4F4881C150D440BE0150
:102800006C5F7B4FCE0101960E94EB0981E0CA59B3
:10281000D94F8883C656D64055C0823009F052C081
:10282000CF5AD94F8881C155D6408130D9F4CE5F77
:10283000DB4F4880C250D4404A94C45BD94F888152
:10284000CC54D64081113EC09E012959394F45E9EB
:1028500051E0BE016C5F7B4FCE01865B9B4F0E94B7
:102860006A03EBCFC05BD94F8881C055D640813019
:1028700049F5CC24C394E42C062DCF5FDB4F28818F
:10288000C150D440CA51D94F4881C65ED640BE011E
:102890006C5F7B4FCE0101960E945C06042D262DB5
:1028A000CF5FDB4F4881C150D440BE016C5F7B4F8E
:1028B000CE0101960E94EB0981E0CA59D94F888365
:1028C000C656D640CB51D94F1882C55ED640CB589C
:1028D000D94F1882C557D64061E0CE018B58994F29
:1028E0000E940E0522242394C55BD94F8881CB54C6
:1028F000D640813081F5C65EDB4F8881CA51D44015
:10290000813049F5211027C0C55EDB4F8881CB514E
:10291000D440813001F58BB181608BB98BB18D7F53
:102920008BB9CE5FDB4F4880C250D4404A94CB5A1B
:10293000D94F8881C555D640813029F46AEF84E9A2
:1029400091E00E948B2181E0CA5AD94F8883C655F5
:10295000D64022242394C25BD94F8881CE54D640DE
:10296000813081F0CA59D94F8881C656D64081300E
:1029700009F067C0C35BD94F8881CD54D640813000
:1029800009F05FC0E1E02E125CC0CB51D94F8881C5
:10299000C55ED640882321F0833031F57E1224C0F5
:1029A000CE5FDB4F6881C250D440842D0E94501C02
:1029B000AA24A394C82EE42C062DCF5FDB4F2881D8
:1029C000C150D440CA51D94F4881C65ED640BE01DD
:1029D0006C5F7B4FCE0101960E94B407CA59D94F54
:1029E0001882C656D6402AC0813041F5CE5FDB4FF3
:1029F0006881C250D440842D0E94501CAA24A39404
:102A0000C82EE42C062DCF5FDB4F2881C150D44067
:102A1000CA51D94F4881C65ED640BE016C5F7B4F1C
:102A2000CE0101960E94B407CA59D94F1882C656E2
:102A3000D640CB51D94F1882C55ED64081B38E7F28
:102A400081BBC35BD94F8881CD54D640813009F01A
:102A500050C0F1E02F124DC08BB181608BB9CE5FB9
:102A6000DB4F6881C250D440842D0E94501C482EF8
:102A7000CB51D94F8881C55ED640882329F0833059
:102A8000F1F481E078121BC0CC24C394E42C062D11
:102A9000CF5FDB4F2881C150D440CA51D94F488104
:102AA000C65ED640BE016C5F7B4FCE0101960E9490
:102AB0005C0681E0CA59D94F8883C656D640CB51AF
:102AC000D94F8881C55ED640813029F4CB51D94F8A
:102AD0001882C55ED640042D262DCF5FDB4F48817E
:102AE000C150D440BE016C5F7B4FCE0101960E9465
:102AF000EB09C35BD94F8881CD54D6408130A1F416
:102B0000211012C0C45BD94F8881CC54D64081308B
:102B100051F0CE5FDB4F6881C250D440842D0E94BB
:102B2000501C482E01C0412CCD5AD94F8881C35525
:102B3000D640813091F491E029120FC0CB51D94F8A
:102B40008881C55ED640811108C0442019F08BB140
:102B50008E7F8BB981B38E7F81BBCE018B58994F0D
:102B60000E949E048130A9F4C55BD94F8881CB5463
:102B7000D640882311F0823071F4CB58D94F888128
:102B8000C557D640813049F4E1E02E1641F0512C72
:102B900008C0512C06C0512C04C0512C02C0552431
:102BA0005394552009F4D5C08BB181608BB9C55BB6
:102BB000D94F8881CB54D64081110CC0CB5AD94F04
:102BC0008881C555D640813029F46CEF84E991E0C5
:102BD0000E948B21CE018B58994F0E949E04813018
:102BE00049F0C55EDB4F8881CB51D440811104C0D0
:102BF000152D03C0152D01C010E0112309F449C0A3
:102C0000CE018C5F9B4F0E94A21A9E012959394F19
:102C100045E951E0BE016C5F7B4FCE01865B9B4F67
:102C20000E946A03F1E07F1215C0CA5FDB4F888102
:102C3000C650D440813071F4CC5FDB4F4881C45022
:102C4000D4402FE760E8C55FDB4F8881CB50D4408C
:102C50000E94BF0981E07812BDCFCC5EDB4F888136
:102C6000C451D440813009F0B5CFCD5EDB4F28810F
:102C7000C351D440CE5EDB4F4881C251D440062DB3
:102C800060EBC55FDB4F8881CB50D4400E94D509F3
:102C9000A1CFC05BD94F8881C055D6408130D1F0DB
:102CA000CE5FDB4F6881C250D440842D0E94501CFF
:102CB000E82FF0E0EE0FFF1FEE0FFF1FEE0FFF1FDC
:102CC00081E090E08C0F9D1FE80FF91F8181882320
:102CD0000CF0512E5520D1F0A12CC12CE42C062D46
:102CE000CF5FDB4F2881C150D440CA51D94F4881B2
:102CF000C65ED640BE016C5F7B4FCE0101960E943E
:102D0000B407CA59D94F1882C656D6408BB18E7FA8
:102D10008BB9CB51D94F1882C55ED640CB58D94F0D
:102D20001882C557D640CA5AD94F1882C655D640C0
:102D3000062D20E04BE760EBC55FDB4F8881CB5071
:102D4000D4400E94D509CA59D94F1882C656D640D8
:102D5000212CC85CDB4F8881C853D440813009F0F6
:102D60007BC0C65EDB4F8881CA51D440811174C0DC
:102D700091E0291271C0CB5AD94F8881C555D640F0
:102D8000813029F46CEF84E991E00E948B21C05BD3
:102D9000D94F8881C055D6408130D9F0CE5FDB4F06
:102DA0006881C250D440842D0E94501CE82FF0E06E
:102DB000EE0FFF1FEE0FFF1FEE0FFF1F81E090E0F1
:102DC0008C0F9D1FE80FF91F8181882324F080E07C
:102DD00003C081E001C081E08823D1F0A12CC12C87
:102DE000E42C062DCF5FDB4F2881C150D440CA515F
:102DF000D94F4881C65ED640BE016C5F7B4FCE0185
:102E000001960E94B407CA59D94F1882C656D640B7
:102E10008BB18E7F8BB988E1C85AD94F8883C8554A
:102E2000D640CA5AD94F1882C655D640CB51D94F31
:102E30001882C55ED640062D20E04BE760EBC55FEB
:102E4000DB4F8881CB50D4400E94D509CA59D94F55
:102E50001882C656D640212CCE018B58994F0E941D
:102E60009E04811109C0CB58D94F8881C557D640DF
:102E7000882321F080E003C080E001C081E0882346
:102E800031F081E0CB58D94F8883C557D640CE0169
:102E90008D57994F0E949E04813099F4CD57D94F98
:102EA0008881C358D640813071F4C55EDB4F88817C
:102EB000CB51D440813049F491E0291641F010E023
:102EC00007C010E005C010E003C010E001C011E031
:102ED000112309F4C8C081B3816081BBE2E03E12D6
:102EE0004BC0CB51D94F8881C55ED640811144C0BB
:102EF000C05BD94F8881C055D6408130D1F0CE5FBC
:102F0000DB4F6881C250D440842D0E94501CE82FB2
:102F1000F0E0EE0FFF1FEE0FFF1FEE0FFF1F81E02F
:102F200090E08C0F9D1FE80FF91F818188230CF022
:102F300010E01123D1F0A12CC12CE42C062DCF5F81
:102F4000DB4F2881C150D440CA51D94F4881C65E59
:102F5000D640BE016C5F7B4FCE0101960E94B40744
:102F6000CA59D94F1882C656D64082E0CB51D94FA4
:102F70008883C55ED64072C091E039126FC0CB51D4
:102F8000D94F8881C55ED640811168C0C05BD94FDA
:102F90008881C055D640813029F5A12CC12CE42C64
:102FA000062DCF5FDB4F2881C150D440CA51D94F85
:102FB0004881C65ED640BE016C5F7B4FCE01019654
:102FC0000E94B407CA59D94F1882C656D640262D3A
:102FD000442DCF5FDB4F6881C150D440CE010196B4
:102FE0000E947A1CC15BD94F8881CF54D640813072
:102FF00099F4CE5FDB4F6881C250D440842D0E948B
:10300000501C262D482FCF5FDB4F6881C150D44024
:10301000CE0101960E947A1C6F92842CA72CCE5F61
:10302000DB4FC880C250D440CF5FDB4FE880C15037
:10303000D4408E01065B1B4FCA51D94F2881C65E12
:10304000D64040E0662DCE0101960E94080681E040
:10305000CB51D94F8883C55ED6400F90CD57D94FFD
:103060001882C358D640CE018D57994F0E949E04B6
:10307000811109C0CD57D94F8881C358D6408823C4
:1030800021F080E003C080E001C081E08823D1F11D
:1030900081E0CD57D94F8883C358D640CB51D94F03
:1030A0008881C55ED640823069F5CE018A59994F34
:1030B0009F938F936F92842CA72CFE01EB51F94FB5
:1030C0006F01CE5FDB4FE880C250D440CF5FDB4F53
:1030D0000881C150D4409E01265B3B4FCA51D94F55
:1030E0004881C65ED640BE016C5F7B4F85569640D8
:1030F0000E944E07CB51D94F1882C55ED6400F9023
:103100000F900F90C95AD94F8881C755D64081304A
:1031100099F4CB5AD94F8881C555D640813061F496
:10312000CA5AD94F8881C655D640813029F468EFF4
:1031300084E991E00E948B2185E991E00E94F92CBD
:103140000091900110919101209192013091930191
:103150000E5C1F4F2F4F3F4F0617170728073907E1
:1031600008F062C0C55BD94F8881CB54D64081112D
:1031700014C020E0AE01465C5B4F61E0CE01875C8D
:103180009B4F0E940A1CBC017695679576956795C2
:10319000CE01865B9B4F0E94DB01CE018F56994F7B
:1031A0000E949E04582ECE018156994F0E949E0483
:1031B000182FCE018355994F0E949E04452D612FF3
:1031C0000E941105C65BD94F8883CA54D640CE01F0
:1031D000865B9B4F0E94D103C55EDB4F8881CB513C
:1031E000D4408130A9F4CE018753994F0E949E04A8
:1031F000182FCE018554994F0E949E04612F0E9482
:10320000E01B382ECE018952994F0E949E04782EE1
:1032100085E991E00E94F92C6093900170939101EF
:103220008093920190939301CE018D57994F0E9404
:103230009E04813091F4C55EDB4F8881CB51D44030
:10324000813069F4CD57D94F8881C358D640813039
:1032500041F4222041F080E007C080E005C080E01A
:1032600003C080E001C081E08823D9F1CE018951FB
:10327000994F9F938F932E01FAE14F1AF9EF5F0A4E
:103280005F924F927F92865591094C01FE01E15663
:10329000F94F5F014C976C017C977F018E010E5FA7
:1032A0001B4F9E012C5F3B4F462DCF5FDB4F68814C
:1032B000C150D440845796400E94A20AF201108265
:1032C00081E0CB58D94F8883C557D640CD57D94FC9
:1032D0008883C358D6400F900F900F900F900F9097
:1032E000412CC75EDB4F8881C951D440813009F041
:1032F00033C8211031C8BE01665B7B4FCE018C5FA5
:103300009B4F0E9405260E94D922CF5FDB4F888306
:10331000C150D440843039F491E0C85FDB4F9883CA
:10332000C850D44005C0C85FDB4F1882C850D44095
:10333000823011F0853039F481E0C75FDB4F88833C
:10334000C950D44005C0C75FDB4F1882C950D44074
:103350000E942524682E0E947723C55AD94F88835E
:10336000CB55D6400E941523C65AD94F8883CA55DB
:10337000D6400E94E923CC5AD94F8883C455D64001
:103380000E94E123CB5AD94F8883C555D6400E946D
:103390006122C65FDB4F8883CA50D4400E949D22C1
:1033A000C55FDB4F8883CB50D4400E94E924CD5FBA
:1033B000DB4F8883C350D4400E94D923C85CDB4FC5
:1033C0008883C853D440813031F4C55BD94F88839A
:1033D000CB54D64005C0C55BD94F1882CB54D640DC
:1033E00040E054E060E070E0CE0101960E94F930C8
:1033F0000E948724CE5FDB4F8883C250D4400E9456
:1034000069050C94AC116FEF7FEF81E090E00E94B2
:10341000EA050895DC0181E057968C9357979396BF
:103420001C92939756961C9256971A961C921A972E
:103430001B961C921B9714961C92149715961C921F
:10344000159720E030E0203131053CF4FD01E20F1A
:10345000F31F14A22F5F3F4FF6CF0895FC0196E0B3
:10346000960F923018F481E0868B03C06C3F09F40C
:10347000168A683F21F48689813009F4808F089587
:10348000CF93DF93EC0184E991E00E94B821882377
:10349000D1F384E991E00E94B8218823D1F384E933
:1034A00091E00E94C221883F28F0682FCE010E943F
:1034B0002E1AEFCFDF91CF9108954130B1F4E62F6E
:1034C000F0E0F595E795F595E795F595E795677043
:1034D00021E030E002C0220F331F6A95E2F7E80FC7
:1034E000F91F84A1282B24A30895E62FF0E0F59579
:1034F000E795F595E795F595E795677021E030E05C
:1035000002C0220F331F6A95E2F7E80FF91F2095DA
:1035100084A1282324A30895262F30E035952795EC
:103520003595279535952795820F931FFC0124A18A
:10353000677081E090E002C0880F991F6A95E2F7FA
:1035400082230895FF920F931F93CF93DF93EC0193
:1035500019821A821C86188A1A8A1D8A188E84E992
:1035600091E00E94B821882309F424C184E991E004
:103570000E94C221182F80E8810F883710F41AA307
:1035800019C1183F28F0612FCE010E942E1A12C1D6
:10359000012F11239CF12AA130E08E8190E0805709
:1035A0009F4F2817390751F51883CE010E94401A02
:1035B0008B83882391F0F8806F2DCE010E948C1AA6
:1035C000811117C081E089838BA18F5F8BA341E0BC
:1035D0006F2DCE010E945D1A0CC081E08A83688144
:1035E00040E0CE010E945D1A8BA1882311F081502A
:1035F0008BA38C81813009F519821FC00023ECF068
:103600002AA130E08E8190E080589F4F281739071B
:10361000A1F41883CE010E94401A81E08A83688158
:1036200040E0CE010E945D1A8BA1882311F08150E9
:103630008BA38C81813009F41A828BA1811103C084
:1036400081E08F8B01C01F8A002384F02AA130E023
:103650008E8190E080529F4F2817390739F481E01E
:103660008C871A87CE010E94401A8B8700232CF189
:103670002AA130E08E8190E080559F4F28173907AE
:10368000E1F481E0888B1E87CE010E94401A8F876B
:103690008E858B3771F41BA281E08F8B80E090E0E8
:1036A0008031910534F4FE01E80FF91F14A2019650
:1036B000F7CF8D81813009F4188A002364F02AA1A4
:1036C00030E08E8190E080539F4F2817390719F41E
:1036D00081E08A8B198B8AA1803F09F06BC01F376C
:1036E00079F4173F09F466C084E991E00E94B8219B
:1036F0008823D1F384E991E00E94C221182FF1CFF1
:1037000081E08D8B84E991E00E94B8218823D1F378
:1037100084E991E00E94C221898F873F09F44AC061
:1037200084E991E00E94B8218823D1F384E991E0F3
:103730000E94C2218A8F873FE9F184E991E00E94CB
:10374000B8218823D1F384E991E00E94C2218B8FB4
:10375000873F81F184E991E00E94B8218823D1F369
:1037600084E991E00E94C2218C8F873F19F184E99E
:1037700091E00E94B8218823D1F384E991E00E946E
:10378000C2218D8F873FB1F000E0173F99F084E9A7
:1037900091E00E94B8218823D1F384E991E00E944E
:1037A000C221182F873F89F3FE01E00FF11D868F9C
:1037B0000F5FEBCFDF91CF911F910F91FF90089595
:1037C000811102C0613031F0611106C0813031F0E9
:1037D00083E0089581E0089583E0089582E00895EC
:1037E00087E880937A0082E080937E000895606489
:1037F00060937C0040937B00EAE7F0E08081806486
:10380000808380917A0086FDFCCF80917800909132
:1038100079000895606460937C0020937B00EAE760
:10382000F0E080818064808380917A0086FDFCCF07
:1038300087E090E01816190694F4DC01AA0FBB1F6C
:10384000A40FB51FFC01E150F048EE0FFF1FE40F7D
:10385000F51F208131812D933C930197EBCF80910F
:10386000780090917900FA019183808320E030E024
:1038700080E090E02830310564F4F901EE0FFF1F7D
:10388000E40FF51F60817181860F971F2F5F3F4FF7
:10389000F1CF9695879596958795969587950895F6
:1038A000282F30E070E0615071092617370714F4B3
:1038B0008F5F089580E00895AC0120E030E020386B
:1038C0003105BCF4F901EE0FFF1FEE0FFF1FEE0FE5
:1038D000FF1FE40FF51F90819078962B90836183F2
:1038E0006283638364836583668367832F5F3F4F4F
:1038F000E6CF0895611113C0E42FF0E0EE0FFF1F33
:10390000EE0FFF1FEE0FFF1FE80FF91F3081307819
:10391000322B3083218322832383248325836130C8
:1039200089F4E42FF0E0EE0FFF1FEE0FFF1FEE0F04
:10393000FF1FE80FF91F30813078322B308321834D
:1039400022832383623011F06530A9F4E42FF0E084
:10395000EE0FFF1FEE0FFF1FEE0FFF1FE80FF91F07
:1039600030813078322B3083218322832383248358
:103970002583268327836350623078F4E42FF0E0B8
:10398000EE0FFF1FEE0FFF1FEE0FFF1FE80FF91FD7
:1039900080818078822B80832183089561112CC0DF
:1039A00050E0DA01AA0FBB1FAA0FBB1FAA0FBB1F53
:1039B000A80FB91F4150504E440F551F440F551FBB
:1039C000440F551FFC01E40FF51F80818C9381810A
:1039D000806811968C931197828112968C9312971E
:1039E000838113968C931397848114968C931497E8
:1039F000858115968C930895613021F550E0DA01A8
:103A0000AA0FBB1FAA0FBB1FAA0FBB1FA80FB91F6E
:103A1000FA01E150F04EEE0FFF1FEE0FFF1FEE0F09
:103A2000FF1FE80FF91F80818C93818180681196B8
:103A30008C931197828112968C931297838113969F
:103A40008C930895623011F06530A1F550E0DA01F1
:103A5000AA0FBB1FAA0FBB1FAA0FBB1FA80FB91F1E
:103A60004150504E440F551F440F551F440F551FD2
:103A7000FC01E40FF51F80818C9381818068119691
:103A80008C931197828112968C931297838113964F
:103A90008C931397848114968C9314978581159633
:103AA0008C931597868116968C9316978781179617
:103AB0008C93089563506230D8F450E0DA01AA0F75
:103AC000BB1FAA0FBB1FAA0FBB1FA80FB91FFA016C
:103AD000E150F04EEE0FFF1FEE0FFF1FEE0FFF1F26
:103AE000E80FF91F80818C938181806811968C93F7
:103AF0000895FF920F931F93CF93DF93EC01162F3E
:103B0000842FF22EE82FF0E0EE0FFF1FEE0FFF1FC5
:103B1000EE0FFF1FEC0FFD1F918199230CF094C055
:103B2000111121C0AF2DB0E0AA0FBB1FAA0FBB1F00
:103B3000AA0FBB1FAC0FBD1F9C91908311969C9147
:103B400011979068918312969C9112979283139685
:103B50009C911397938314969C9114979483159634
:103B60009C9195836DC01130C9F4AF2DB0E0AA0FC0
:103B7000BB1FAA0FBB1FAA0FBB1FAC0FBD1F9C9181
:103B8000908311969C9111979068918312969C91C5
:103B90001297928313969C91938352C0123011F026
:103BA000153049F5AF2DB0E0AA0FBB1FAA0FBB1F00
:103BB000AA0FBB1FAC0FBD1F9C91908311969C91C7
:103BC00011979068918312969C9112979283139605
:103BD0009C911397938314969C91149794831596B4
:103BE0009C911597958316969C9116979683179698
:103BF0009C91978325C0133089F4AF2DB0E0AA0FB4
:103C0000BB1FAA0FBB1FAA0FBB1FAC0FBD1F9C91F0
:103C1000908311969C919068918312C0143081F426
:103C2000AF2DB0E0AA0FBB1FAA0FBB1FAA0FBB1F6F
:103C3000AC0FBD1F9C91908311969C9190689183CD
:103C4000602F0E94501C5ECFDF91CF911F910F918A
:103C5000FF900895611114C020E030E02038310554
:103C60000CF03FC0F901EE0FFF1FEE0FFF1FEE0F2C
:103C7000FF1FE80FF91F468347832F5F3F4FEECFAB
:103C80006130A9F420E030E02038310554F5F90125
:103C9000EE0FFF1FEE0FFF1FEE0FFF1FE80FF91FC4
:103CA00044834583468347832F5F3F4FEDCF635067
:103CB0006230B8F420E030E02038310594F4F901A6
:103CC000EE0FFF1FEE0FFF1FEE0FFF1FE80FF91F94
:103CD0004283438344834583468347832F5F3F4F1B
:103CE000EBCF0895AF92BF92CF92DF92EF920F93F6
:103CF0001F93CF93DF93EC0121112EC090E09530FC
:103D000008F0C3C0EE2DF0E0EE0FFF1FEE0FFF1F17
:103D1000EE0FFF1FEC0FFD1FC92ED12CDF01AC0DE4
:103D2000BD1D2C91A22FAF77B0E0A02EB12CAA150B
:103D3000BB0539F4DF01AC0DBD1D262B2C9345834B
:103D4000A4C030E0A62FAF77B0E02A173B0711F4EC
:103D500045839BC09F5FD3CF213019F530E03430CD
:103D600008F093C08E2D90E0880F991F880F991F3F
:103D7000880F991F8C0F9D1FE32FF0E0DC01AE0F21
:103D8000BF1F2C91422F4F7750E0A02FB0E04A1771
:103D90005B0729F4E80FF91F262B208376C03F5FCD
:103DA000DECF2230A1F550E0543008F06EC08E2DE9
:103DB00090E0880F991F880F991F880F991F8C0F0B
:103DC0009D1FA52FB0E0FC01EA0FFB1F2081E22F11
:103DD000EF77F0E0C02ED12CEC15FD0551F4FC017D
:103DE000EA0FFB1F262B20831496A80FB91F4C93B4
:103DF0004CC030E0E62FEF77F0E02E173F0729F4B4
:103E00001496A80FB91F4C9340C05F5FCDCF8DEFC4
:103E1000820F8230B0F48E2D90E0880F991F880FAA
:103E2000991F880F991FC80FD91F2881822F8F775C
:103E300090E010E08017910741F5262B28834983F5
:103E400024C0253011F530E03830F8F48E2D90E0A4
:103E5000880F991F880F991F880F991F8C0F9D1F1E
:103E6000E32FF0E0DC01AE0FBF1F2C91422F4F7704
:103E700050E0A02FB0E04A175B0729F4E80FF91FC4
:103E8000262B208302C03F5FDFCFDF91CF911F91B0
:103E90000F91EF90DF90CF90BF90AF900895EF9289
:103EA000FF920F93CF93DF9321110DC0F12CEE0CF5
:103EB000FF1CEE0CFF1CEE0CFF1CFC01EE0DFF1DA9
:103EC0006683478368C0213091F550E0523010F589
:103ED0002E2D30E0220F331F220F331F220F331FEE
:103EE000280F391FE52FF0E0EE0FFF1FDF011496BA
:103EF000E901CA0FDB1F7881701711F0671308C042
:103F0000A20FB31F6C933596E20FF31F408343C09B
:103F10005F5FDCCFEE2DF0E0EE0FFF1FEE0FFF1F17
:103F2000EE0FFF1FE80FF91F6683478334C023504D
:103F3000223088F550E0533010F52E2D30E0220F5E
:103F4000331F220F331F220F331F280F391FE52F76
:103F5000F0E0EE0FFF1FDF011296E901CA0FDB1F31
:103F60007881071711F0671308C0A20FB31F6C9375
:103F70003396E20FF31F40830EC05F5FDCCFF12C5E
:103F8000EE0CFF1CEE0CFF1CEE0CFF1CFC01EE0DFA
:103F9000FF1D66834783DF91CF910F91FF90EF90D4
:103FA0000895FC01E853FE4F2081362F30782F779B
:103FB000232B208370E0AB01440F551F38962081DE
:103FC00040782F77242B2083AB01440F551F440FDB
:103FD000551F3896208140782F77242B2083AB0102
:103FE000440F551F440F551F440F551F389620810D
:103FF00040782F77242B2083AB0142955295507F38
:104000005427407F54273896208140782F77242BDF
:104010002083AB01440F551F42955295507F542782
:10402000407F54273896208140782F77242B208397
:10403000AB010024569547950794569547950794EC
:10404000542F402D3896208140782F77242B2083C1
:104050007695762F662777956795389680818F7746
:10406000682B60830895DC011092CD008FE180936E
:10407000CC00E9ECF0E088E1808390819068908347
:1040800086E08093CA001C920895CF93DF93DB01F2
:1040900090919801809199019813FACF90E0292F7F
:1040A00030E0FD0101900020E9F73197EA1BFB0B9E
:1040B0002E173F07A0F480919801E82FF0E0ED0162
:1040C000C20FD31F2881E656FE4F20838F5F809357
:1040D0009801882314F4109298019F5FE0CFE9ECD7
:1040E000F0E0808180628083DF91CF9108954F92CC
:1040F0005F926F927F92AF92BF92CF92DF92EF92D8
:10410000FF920F931F93CF93DF93CDB7DEB72A01B2
:104110003B01EDB6FEB677232CF00F2EF5E0DF2E37
:10412000F02D04C00F2EF6E0DF2EF02D8DB79EB7D8
:104130008D1991090FB6F8949EBF0FBE8DBFEDB7D4
:10414000FEB731965F018F0177200CF05DC070944F
:10415000609450944094411C511C611C711C8DE270
:10416000EDB7FEB78183C301B20120E137E240E041
:1041700050E00E945130CA01B9012AE030E040E02D
:1041800050E00E945130605DF5016183C301B201CE
:1041900028EE33E040E050E00E945130CA01B901FE
:1041A0002AE030E040E050E00E945130605DF501CF
:1041B0006283C301B20124E630E040E050E00E9497
:1041C0005130CA01B9012AE030E040E050E00E94DD
:1041D0005130605DF5016383C301B2012AE030E034
:1041E00040E050E00E945130C62ECA01B9012AE0D9
:1041F00030E040E050E00E945130605DF5016483A2
:1042000080E38C0D858351C0C301B20120E137E208
:1042100040E050E00E945130CA01B9012AE030E08C
:1042200040E050E00E945130605DEDB7FEB7618321
:10423000C301B20128EE33E040E050E00E9451306B
:10424000CA01B9012AE030E040E050E00E9451305C
:10425000605DF5016183C301B20124E630E040E016
:1042600050E00E945130CA01B9012AE030E040E03C
:1042700050E00E945130605DF5016283C301B201DC
:104280002AE030E040E050E00E945130762ECA0132
:10429000B9012AE030E040E050E00E945130605D1A
:1042A000F501638380E3870D848390919801809169
:1042B00099019813FACF90E09D15A0F48091980190
:1042C000E82FF0E0D801A90FB11D2C91E656FE4F62
:1042D00020838F5F80939801882314F410929801B3
:1042E0009F5FEACFE9ECF0E08081806280830FB6C7
:1042F000F894FEBE0FBEEDBEDF91CF911F910F91DE
:10430000FF90EF90DF90CF90BF90AF907F906F9035
:104310005F904F90089580919801E82FF0E0E65665
:10432000FE4F60838F5F80939801882314F410926E
:104330009801E9ECF0E08081806280830895FC01BF
:1043400020812617A1F0608380919801E82FF0E08A
:10435000E656FE4F60838F5F80939801882314F4A4
:1043600010929801E9ECF0E08081806280830895EA
:1043700090911B0280911A02981711F081E0089524
:1043800080E0089590911B0280911A02981769F0BD
:10439000E92FF0E0E45EFD4F80819F5F90931B0268
:1043A000992324F410921B02089580E00895CF937E
:1043B000DF93EC01CE010E94B821882321F0CE01C9
:1043C0000E94C221F7CFDF91CF9108951F920F92E3
:1043D0000FB60F9211248F93EF93FF93E091990101
:1043E00080919801E81781F0F0E0E656FE4F808159
:1043F0008093CE00809199018F5F809399018823EB
:1044000044F41092990105C0E9ECF0E080818F7DC1
:104410008083FF91EF918F910F900FBE0F901F90AF
:1044200018951F920F920FB60F9211248F939F939E
:10443000EF93FF9380911A02E82FF0E09091CE0065
:10444000E45EFD4F90838F5F80931A02882314F4FB
:1044500010921A02FF91EF919F918F910F900FBED2
:104460000F901F901895EF92FF920F931F93CF9389
:10447000DF937C0100E010E000381105DCF4C0E0BF
:10448000D0E0C830D1059CF4C801880F991F880F6F
:10449000991F880F991FF701E80FF91FEC0FFD1FF7
:1044A00060818C0F9D1F0E9411312196EACF0F5F12
:1044B0001F4FE2CFDF91CF911F910F91FF90EF90AF
:1044C0000895CF93DF9380E090E00E9409318078D7
:1044D000C82FD0E0D595C795D595C795D595C795E3
:1044E000D595C79588E090E00E940931807890E0EA
:1044F00095958795959587959595879595958795A4
:1045000095958795C82B80E190E00E9409318078CD
:1045100090E0082E892F000C881F990B000C881F33
:10452000991FC82B88E190E00E940931881F8827D5
:10453000881F8C2BDF91CF910895CF93DF9380E27A
:1045400090E00E9409318078C82FD0E0D595C795BA
:10455000D595C795D595C795D595C79588E290E02F
:104560000E940931807890E095958795959587957B
:10457000959587959595879595958795C82B80E313
:1045800090E00E940931807890E0082E892F000C7D
:10459000881F990B000C881F991FC82B88E390E097
:1045A0000E940931881F8827881F8C2BDF91CF91AB
:1045B0000895CF93DF9380E490E00E9409318078E2
:1045C000C82FD0E0D595C795D595C795D595C795F2
:1045D000D595C79588E490E00E940931807890E0F5
:1045E00095958795959587959595879595958795B3
:1045F00095958795C82B80E590E00E9409318078D9
:1046000090E0082E892F000C881F990B000C881F42
:10461000991FC82B88E590E00E940931881F8827E0
:10462000881F8C2BDF91CF910895CF9380E890E085
:104630000E940931C82F88E890E00E9409318078F3
:10464000282F30E035952795C078C22B80E990E07F
:104650000E940931807890E095958795959587958A
:10466000C82B88E990E00E940931807890E0959508
:1046700087959595879595958795C82B80EA90E0C5
:104680000E940931807890E095958795959587955A
:104690009595879595958795C82B88EA90E00E9417
:1046A0000931807890E095958795959587959595B2
:1046B00087959595879595958795C82B80EB90E084
:1046C0000E940931807890E0082E892F000C881F05
:1046D000990B000C881F991FC82B88EB90E00E9453
:1046E0000931881F8827881F8C2BCF910895CF937D
:1046F00080EC90E00E940931C82F88EC90E00E9485
:1047000009318078282F30E035952795C078C22B65
:1047100080ED90E00E940931807890E09595879532
:1047200095958795C82B88ED90E00E940931807897
:1047300090E0959587959595879595958795C82B44
:1047400080EE90E00E940931807890E09595879501
:10475000959587959595879595958795C82B88EE1E
:1047600090E00E940931807890E095958795959525
:104770008795959587959595879595958795C82B58
:1047800080EF90E00E940931807890E0082E892F18
:10479000000C881F990B000C881F991FC82B88EFED
:1047A00090E00E940931881F8827881F8C2BCF91A9
:1047B000089580E491E00E940931881F8827881FAE
:1047C000089588E491E00E940931881F8827881F96
:1047D0000895CF93DF9388E691E00E9409318078B5
:1047E000C82FD0E0D595C795D595C795D595C795D0
:1047F000D595C79580E791E00E940931807890E0D7
:104800009595879595958795959587959595879590
:1048100095958795C82B88E791E00E9409318078AB
:1048200090E0082E892F000C881F990B000C881F20
:10483000991FC82B80E891E00E940931881F8827C2
:10484000881F8C2BDF91CF910895CF9388E891E05A
:104850000E940931C82F80E991E00E9409318078D7
:10486000282F30E035952795C078C22B88E991E054
:104870000E940931807890E0959587959595879568
:10488000C82B80EA91E00E940931807890E09595EC
:1048900087959595879595958795C82B88EA91E09A
:1048A0000E940931807890E0959587959595879538
:1048B0009595879595958795C82B80EB91E00E94FB
:1048C0000931807890E09595879595958795959590
:1048D00087959595879595958795C82B88EB91E059
:1048E0000E940931807890E0082E892F000C881FE3
:1048F000990B000C881F991FC82B80EC91E00E9437
:104900000931881F8827881F8C2BCF910895CF935A
:1049100088EC91E00E940931C82F80ED91E00E945F
:1049200009318078282F30E035952795C078C22B43
:1049300088ED91E00E940931807890E09595879507
:1049400095958795C82B80EE91E00E94093180787B
:1049500090E0959587959595879595958795C82B22
:1049600088EE91E00E940931807890E095958795D6
:10497000959587959595879595958795C82B80EF03
:1049800091E00E940931807890E095958795959502
:104990008795959587959595879595958795C82B36
:1049A00088EF91E00E940931807890E0082E892FED
:1049B000000C881F990B000C881F991FC82B80E0E2
:1049C00092E00E940931881F8827881F8C2BCF9185
:1049D000089580E691E00E940931881F8827881F8A
:1049E000089566E071E084E991E00E9445200E940C
:1049F0006122482F50E04F5F5F4F052E000C660B81
:104A0000770B84E991E00E9477206AE071E084E905
:104A100091E00E9445206DE071E084E991E00E9400
:104A200045200E949D22482F50E04F5F5F4F052E8A
:104A3000000C660B770B84E991E00E9477206AE016
:104A400071E084E991E00E94452065E171E084E92C
:104A500091E00E94452080E090E00E9409318F772C
:104A6000482F50E060E070E084E991E00E947720F8
:104A70006AE071E084E991E00E94452061E271E022
:104A800084E991E00E9445200E942524482F50E0AF
:104A900060E070E084E991E00E9477206AE071E0D4
:104AA00084E991E00E94452068E271E084E991E0A8
:104AB0000E9445200E94D922482F50E060E070E01B
:104AC00084E991E00E9477206AE071E084E991E056
:104AD0000E94452062E371E084E991E00E94452054
:104AE0000E948724482F50E060E070E084E991E064
:104AF0000E9477206AE071E084E991E00E944520FD
:104B00006BE371E084E991E00E9445200E94152347
:104B1000482F50E060E070E084E991E00E94772047
:104B20006AE071E084E991E00E94452066E471E06A
:104B300084E991E00E9445200E947723482F50E0AD
:104B400060E070E084E991E00E9477206AE071E023
:104B500084E991E00E94452061E571E084E991E0FB
:104B60000E9445200E94E923482F50E060E070E059
:104B700084E991E00E9477206AE071E084E991E0A5
:104B80000E9445206FE571E084E991E00E94452094
:104B90000E94D923482F50E060E070E084E991E062
:104BA0000E9477206AE071E084E991E00E9445204C
:104BB0006BE671E084E991E00E9445200E94E123C8
:104BC000482F50E060E070E084E991E00E94772097
:104BD0006AE071E084E991E00E94452068E771E0B5
:104BE00084E991E00E9445200E94E924482F50E08A
:104BF00060E070E084E991E00E9477206AE071E073
:104C000084E991E00E9445200895CF92DF92EF92CF
:104C1000FF920F931F93CF93DF93EC018B01998D3C
:104C200080910401981320C19A8D809105019813F9
:104C30001BC18C8D8F3F09F017C18D8D811114C15F
:104C40008B8D873009F010C18EE1FB01E05FFD4FD5
:104C5000808380EF31968083CB010E94F2031E8215
:104C60001F82E12CF12CE11484E0F80644F460E0AA
:104C7000C7010E9423319FEFE91AF90AF4CF6CE3D0
:104C800080E090E00E94233180E890E00E940931AA
:104C9000682F6F7780E890E00E94233188E890E0E9
:104CA0000E940931682F6F7788E890E00E942331D5
:104CB00080E990E00E940931682F6F7780E990E0E9
:104CC0000E94233188E990E00E940931682F6068D2
:104CD00088E990E00E94233180EA90E00E94093147
:104CE000682F606880EA90E00E94233188EA90E0B3
:104CF0000E940931682F606888EA90E00E942331A1
:104D000080EB90E00E940931682F606880EB90E0B2
:104D10000E94233188EB90E00E940931682F6F7761
:104D200088EB90E00E94233180EC90E00E940931F2
:104D3000682F606880EC90E00E94233188EC90E05E
:104D40000E940931682F606888EC90E00E9423314E
:104D500080ED90E00E940931682F606880ED90E05E
:104D60000E94233188ED90E00E940931682F60682D
:104D700088ED90E00E94233180EE90E00E9409319E
:104D8000682F6F7780EE90E00E94233188EE90E0EC
:104D90000E940931682F6F7788EE90E00E942331DE
:104DA00080EF90E00E940931682F6F7780EF90E0EC
:104DB0000E94233188EF90E00E940931682F6F77BD
:104DC00088EF90E00E94233188EC91E00E94093145
:104DD000682F6F7788EC91E00E94233180ED91E09D
:104DE0000E940931682F6F7780ED91E00E94233196
:104DF00088ED91E00E940931682F6F7788ED91E08E
:104E00000E94233180EE91E00E940931682F6F7774
:104E100080EE91E00E94233188EE91E00E940931FA
:104E2000682F6F7788EE91E00E94233180EF91E048
:104E30000E940931682F6F7780EF91E00E94233143
:104E400088EF91E00E940931682F6F7788EF91E039
:104E50000E94233180E092E00E940931682F60684F
:104E600080E092E00E942331998D80910401981393
:104E700057C09A8D80910501981352C08C8D89314D
:104E800009F04EC08D8D81114BC08B8D873009F09C
:104E900047C0EE8CEE82E0E1EE9E7001112480E0CE
:104EA00090E00E9409319E2D90788F77692F682BB2
:104EB00080E090E00E942331EE80F0E2EF9E7001EE
:104EC000112488E090E00E9409319E2D90788F7720
:104ED000692F682B88E090E00E942331EE8080E407
:104EE000E89E7001112480E190E00E9409319E2D1E
:104EF00090788F77692F682B80E190E00E942331B2
:104F0000EE8090E8E99E7001112488E190E00E9413
:104F100009318F77682F6E2988E190E00E94233154
:104F2000998D80910401981358C09A8D8091050144
:104F3000981353C08C8D893109F04FC08D8D81300D
:104F400009F04BC08B8D873009F047C0EE8CEF82A3
:104F5000E0E1EE9E7001112480E290E00E940931B0
:104F60009E2D90788F77692F682B80E290E00E94C9
:104F70002331EF80F0E2EF9E7001112488E290E08F
:104F80000E9409319E2D90788F77692F682B88E2D7
:104F900090E00E942331EF8080E4E89E70011124AC
:104FA00080E390E00E9409319E2D90788F77692FE1
:104FB000682B80E390E00E942331EF8090E8E99E27
:104FC0007001112488E390E00E9409318F77682FE7
:104FD0006E2988E390E00E942331998D809104012D
:104FE000981361C09A8D8091050198135CC08C8DD7
:104FF0008A3109F058C08B8D873009F054C0ED8C90
:10500000F12C6701CC0CDD1CCC0CDD1CCC0CDD1CA8
:10501000CC0CDD1C80E490E00E9409316C2D60789E
:105020008F77682B80E490E00E9423316701CC0CDD
:10503000DD1CCC0CDD1CCC0CDD1CCC0CDD1CCC0C2C
:10504000DD1C88E490E00E9409316C2D60788F7738
:10505000682B88E490E00E94233167010024D694F5
:10506000C7940794D694C7940794DC2CC02C80E591
:1050700090E00E9409316C2D60788F77682B80E575
:1050800090E00E942331F694FE2CEE24F794E794EE
:1050900088E590E00E9409318F77682F6E2988E5B6
:1050A00090E00E942331998D809104019813AFC044
:1050B0009A8D809105019813AAC08C8D8B3109F0CF
:1050C000A6C08D8D8111A3C08B8D873009F09FC044
:1050D0008E8D7801E0EFEE1AEDEFFE0AF701808386
:1050E000C8010E94F203F701D08080E890E00E949E
:1050F00009316D2D60788F77682B80E890E00E94F1
:105100002331F701C080D12CCC0CDD1C88E890E065
:105110000E9409319C2D90788F77692F682B88E841
:1051200090E00E942331F701C080D12CCC0CDD1C13
:10513000CC0CDD1C80E990E00E9409319C2D907818
:105140008F77692F682B80E990E00E942331F70167
:10515000C080D12CCC0CDD1CCC0CDD1CCC0CDD1C9F
:1051600088E990E00E9409319C2D90788F77692F13
:10517000682B88E990E00E942331F701C080F0E1BC
:10518000CF9E6001112480EA90E00E9409319C2D9D
:1051900090788F77692F682B80EA90E00E94233106
:1051A000F701C080F0E2CF9E6001112488EA90E010
:1051B0000E9409319C2D90788F77692F682B88EA9F
:1051C00090E00E942331F701C080F0E4CF9E60019F
:1051D000112480EB90E00E9409319C2D90788F770C
:1051E000692F682B80EB90E00E942331F701E0806B
:1051F000F0E8EF9E7001112488EB90E00E940931E5
:105200008F77682F6E2988EB90E00E942331998D6B
:10521000809104019813A6C09A8D8091050198137E
:10522000A1C08C8D8B3109F09DC08D8D813009F02E
:1052300099C08B8D873009F095C08E8D78019FEED7
:10524000E91A9DEFF90AF7018083C8010E94F20371
:10525000F701108180EC90E00E940931612F6078A5
:105260008F77682B80EC90E00E942331F70100815A
:1052700010E0000F111F88EC90E00E9409310078C7
:105280008F77602F682B88EC90E00E942331F70124
:105290000081F4E00F9F8001112480ED90E00E94D6
:1052A000093100788F77602F682B80ED90E00E94A5
:1052B0002331F7010081F8E00F9F8001112488ED70
:1052C00090E00E94093100788F77602F682B88ED7D
:1052D00090E00E942331F7010081F0E10F9F8001EF
:1052E000112480EE90E00E94093100788F77602FC2
:1052F000682B80EE90E00E942331F7010081F0E2FC
:105300000F9F8001112488EE90E00E9409310078FF
:105310008F77602F682B88EE90E00E942331F70191
:105320000081F0E40F9F8001112480EF90E00E9443
:10533000093100788F77602F682B80EF90E00E9412
:105340002331F7010081F0E80F9F8001112488EFDD
:1053500090E00E9409318F77682F602B88EF90E0F2
:105360000E942331998D8091040198131EC09A8D5B
:1053700080910501981319C08C8D8D31B1F48D8DFC
:10538000811113C08B8D873081F40E8D80E8089FCA
:105390008001112480E491E00E9409318F77682F09
:1053A000602B80E491E00E942331998D809104016B
:1053B00098131EC09A8D80910501981319C08C8D89
:1053C0008D31B1F48D8D813099F48B8D873081F4DE
:1053D0000E8D90E8099F8001112488E491E00E94DD
:1053E00009318F77682F602B88E491E00E94233188
:1053F000998D8091040198131BC09A8D80910501AD
:10540000981316C08C8D803299F48B8D873081F47F
:105410000D8DE0E80E9F8001112480E691E00E944E
:1054200009318F77682F602B80E691E00E9423314D
:10543000998D80910401981361C09A8D8091050126
:1054400098135CC08C8D8E3109F058C08B8D8730DD
:1054500009F054C00D8D10E07801EE0CFF1CEE0C2D
:10546000FF1CEE0CFF1CEE0CFF1C88E691E00E9476
:1054700009316E2D60788F77682B88E691E00E9465
:1054800023317801EE0CFF1CEE0CFF1CEE0CFF1C10
:10549000EE0CFF1CEE0CFF1C80E791E00E9409312E
:1054A0006E2D60788F77682B80E791E00E94233122
:1054B00078010024F694E7940794F694E79407940F
:1054C000FE2CE02C88E791E00E9409316E2D607877
:1054D0008F77682B88E791E00E9423311695102F73
:1054E00000271795079580E891E00E9409318F7792
:1054F000682F602B80E891E00E942331998D809184
:1055000004019813A0C09A8D8091050198139BC047
:105510008C8D883209F097C08B8D873009F093C04D
:105520000D8D88E891E00E940931602F60788F77B7
:10553000682B88E891E00E94233110E07801EE0C9E
:10554000FF1C80E991E00E9409316E2D60788F7711
:10555000682B80E991E00E9423317801EE0CFF1C5A
:10556000EE0CFF1C88E991E00E9409316E2D6078F5
:105570008F77682B88E991E00E9423317801EE0C47
:10558000FF1CEE0CFF1CEE0CFF1C80EA91E00E9459
:1055900009316E2D60788F77682B80EA91E00E9448
:1055A00023317801EE0CFF1CEE0CFF1CEE0CFF1CEF
:1055B000EE0CFF1C88EA91E00E9409316E2D6078A4
:1055C0008F77682B88EA91E00E9423317801EE0CF6
:1055D000FF1CEE0CFF1CEE0CFF1CEE0CFF1CEE0C77
:1055E000FF1C80EB91E00E9409316E2D60788F776F
:1055F000682B80EB91E00E94233178010024F6941F
:10560000E7940794F694E7940794FE2CE02C88EB3B
:1056100091E00E9409316E2D60788F77682B88EBBE
:1056200091E00E9423311695102F002717950795BA
:1056300080EC91E00E9409318F77682F602B80EC1D
:1056400091E00E942331998D809104019813A0C0AC
:105650009A8D8091050198139BC08C8D893209F039
:1056600097C08B8D873009F093C00D8D88EC91E049
:105670000E940931602F60788F77682B88EC91E069
:105680000E94233110E07801EE0CFF1C80ED91E0C8
:105690000E9409316E2D60788F77682B80ED91E044
:1056A0000E9423317801EE0CFF1CEE0CFF1C88EDEC
:1056B00091E00E9409316E2D60788F77682B88ED1C
:1056C00091E00E9423317801EE0CFF1CEE0CFF1CD0
:1056D000EE0CFF1C80EE91E00E9409316E2D607887
:1056E0008F77682B80EE91E00E9423317801EE0CD9
:1056F000FF1CEE0CFF1CEE0CFF1CEE0CFF1C88EEDA
:1057000091E00E9409316E2D60788F77682B88EECA
:1057100091E00E9423317801EE0CFF1CEE0CFF1C7F
:10572000EE0CFF1CEE0CFF1CEE0CFF1C80EF91E05A
:105730000E9409316E2D60788F77682B80EF91E0A1
:105740000E94233178010024F694E7940794F6949C
:10575000E7940794FE2CE02C88EF91E00E94093139
:105760006E2D60788F77682B88EF91E00E9423314F
:105770001695102F00271795079580E092E00E945C
:1057800009318F77682F602B80E092E00E942331EF
:10579000998D809104019813B0C09A8D8091050174
:1057A0009813ABC08C8D8C3309F0A7C08B8D8730DC
:1057B00009F0A3C000E010E00115F4E01F07B8F401
:1057C00084E991E00E94B8218823B1F3C8010E94C6
:1057D0000931F82E84E991E00E94C2216F2D607892
:1057E000682BC8010E9411310F5F1F4FE5CF1D8D3F
:1057F00088EC91E00E940931612F60788F77682BE7
:1058000088EC91E00E9423310D8D10E0000F111FF4
:1058100080ED91E00E94093100788F77602F682B2E
:1058200080ED91E00E9423310D8D10E0000F111FDB
:10583000000F111F88ED91E00E94093100788F77E9
:10584000602F682B88ED91E00E9423310D8D10E0D0
:10585000000F111F000F111F000F111F80EE91E0AC
:105860000E94093100788F77602F682B80EE91E0DD
:105870000E9423310D8D80E1089F8001112488EE64
:1058800091E00E94093100788F77602F682B88EEB5
:1058900091E00E9423310D8D90E2099F8001112437
:1058A00080EF91E00E94093100788F77602F682B9C
:1058B00080EF91E00E9423310D8DE0E40E9F800186
:1058C000112488EF91E00E94093100788F77602FD2
:1058D000682B88EF91E00E9423310D8DF0E80F9F37
:1058E0008001112480E092E00E9409318F77682FB7
:1058F000602B80E092E00E942331998D8091040119
:1059000098134FC09A8D8091050198134AC08C8DD1
:105910008D3309F046C08B8D873009F042C060EFAF
:1059200084E991E00E948B2160E084E991E00E948B
:105930008B2162E084E991E00E948B2160E484E99C
:1059400091E00E948B2167E084E991E00E948B2125
:105950006CE384E991E00E948B210E948724682FE8
:1059600084E991E00E948B2167EF84E991E00E9435
:105970008B2100E010E0011584E0180790F4C801C5
:105980000E940931682F6F7784E991E00E948B2192
:105990000F5F1F4FEFE1FEE43197F1F700C0000009
:1059A000EACF998D8091040198130DC09A8D809152
:1059B0000501981308C08C8D811105C08B8D87302F
:1059C00011F40E94F124DF91CF911F910F91FF906C
:1059D000EF90DF90CF90089522E024BD3FEF37BDD8
:1059E00020936E0023E025BDFC01128211821082FB
:1059F00008956091A0027091A1028091A2029091FD
:105A0000A30208958F929F92AF92BF92CF92DF929E
:105A1000EF92FF920F93CF93DF93EC018091A0025E
:105A20009091A102A091A202B091A30240919C0288
:105A300050919D0260919E0270919F02841B950B74
:105A4000A60BB70B880F991FAA1FBB1F880F991FA2
:105A5000AA1FBB1F880F991FAA1FBB1F880F991F62
:105A6000AA1FBB1F8F3F9F4FA105B10508F060C063
:105A70008091A0029091A102A091A202B091A302F4
:105A800040919C0250919D0260919E0270919F02F4
:105A9000841B950BA60BB70B880F991FAA1FBB1F62
:105AA000880F991FAA1FBB1F880F991FAA1FBB1F12
:105AB000880F991FAA1FBB1F8D3A9D40A105B105F4
:105AC00080F18091A0029091A102A091A202B091D8
:105AD000A302C0909C02D0909D02E0909E02F090A4
